:100000000C9462000C948A000C948A000C948A0070
:100010000C948A000C948A000C948A000C948A0038
:100020000C948A000C948A000C948A000C948A0028
:100030000C948A000C948A000C948A000C948A0018
:100040000C9438060C948A000C9406060C94E00577
:100050000C948A000C948A000C948A000C948A00F8
:100060000C948A000C948A000000000024002700F1
:100070002A0000000000250028002B0000000000DE
:1000800023002600290004040404040404040202DA
:100090000202020203030303030301020408102007
:1000A0004080010204081020010204081020000012
:1000B0000008000201000003040700000000000027
:1000C0000000820611241FBECFEFD8E0DEBFCDBFF7
:1000D00012E0A0E0B1E0E4E8F8E102C005900D9282
:1000E000A030B107D9F722E0A0E0B2E001C01D9234
:1000F000AB3DB207E1F710E0C2E6D0E004C02197C3
:10010000FE010E94150BC136D107C9F70E94DF0618
:100110000C94400C0C940000DC01ED91FC910190DA
:10012000F081E02D0994AF92BF92CF92DF92EF92CF
:10013000FF920F931F93CF93DF936C017B018B0191
:10014000040F151FEB015E01AE18BF08C017D107E1
:1001500059F06991D601ED91FC910190F081E02D6B
:10016000C6010995892B79F7C501DF91CF911F91C0
:100170000F91FF90EF90DF90CF90BF90AF900895D8
:10018000FC01538D448D252F30E0842F90E0821B9D
:10019000930B541710F0CF96089501970895FC0122
:1001A000918D828D981761F0A28DAE0FBF2FB11D7A
:1001B0005D968C91928D9F5F9F73928F90E00895D2
:1001C0008FEF9FEF0895FC01918D828D981731F08C
:1001D000828DE80FF11D858D90E008958FEF9FEFE0
:1001E0000895FC01918D228D892F90E0805C9F4FB6
:1001F000821B91098F739927089585E192E00E94EF
:10020000F10021E0892B09F420E0822F089580E09D
:1002100090E0892B29F00E94FD0081110C940000D0
:100220000895FC01A48DA80FB92FB11DA35ABF4F8B
:100230002C91848D90E001968F739927848FA689E5
:10024000B7892C93A089B1898C91837080648C9339
:10025000938D848D981306C00288F389E02D8081E8
:100260008F7D80830895EF92FF920F931F93CF931A
:10027000DF93EC0181E0888F9B8D8C8D98131AC0E1
:10028000E889F989808185FF15C09FB7F894EE89C8
:10029000FF896083E889F989808183708064808325
:1002A0009FBF81E090E0DF91CF911F910F91FF9070
:1002B000EF900895F62E0B8D10E00F5F1F4F0F7318
:1002C0001127E02E8C8D8E110CC00FB607FCFACFD3
:1002D000E889F989808185FFF5CFCE010E9411015F
:1002E000F1CFEB8DEC0FFD2FF11DE35AFF4FF082A4
:1002F0009FB7F8940B8FEA89FB8980818062CFCF0A
:10030000CF93DF93EC01888D8823B9F0AA89BB894C
:10031000E889F9898C9185FD03C0808186FD0DC037
:100320000FB607FCF7CF8C9185FFF2CF808185FF58
:10033000EDCFCE010E941101E9CFDF91CF91089559
:10034000833081F028F4813099F08230A9F008954B
:100350008730A9F08830C9F08430B1F480918000F2
:100360008F7D03C0809180008F77809380000895F7
:1003700084B58F7784BD089584B58F7DFBCF809140
:10038000B0008F778093B00008958091B0008F7D8A
:10039000F9CFCF93DF93282F30E0F901E255FF4FDB
:1003A0008491F901E656FF4FD491F901EA57FF4FC6
:1003B000C491CC23A1F081110E94A001EC2FF0E0A8
:1003C000EE0FFF1FE458FF4FA591B491EC91ED2380
:1003D00081E090E009F480E0DF91CF91089580E022
:1003E00090E0FACF1F93CF93DF93282F30E0F901ED
:1003F000E255FF4F8491F901E656FF4FD491F90180
:10040000EA57FF4FC491CC23A9F0162F81110E9407
:10041000A001EC2FF0E0EE0FFF1FEE58FF4FA5916B
:10042000B4918FB7F894EC91111108C0D095DE23E8
:10043000DC938FBFDF91CF911F910895DE2BF8CF12
:10044000CF93DF9390E0FC01E656FF4F24918A574B
:100450009F4FFC0184918823D1F090E0880F991F71
:10046000FC01E859FF4FA591B491FC01EE58FF4FF4
:10047000C591D49161110EC09FB7F8948C91E22F71
:10048000E0958E238C932881E223E8839FBFDF9140
:10049000CF9108958FB7F894EC91E22BEC938FBF36
:1004A000F6CF3FB7F8948091050290910602A09193
:1004B0000702B091080226B5A89B05C02F3F19F08E
:1004C0000196A11DB11D3FBFBA2FA92F982F8827D4
:1004D000BC01CD01620F711D811D911D42E0660FAF
:1004E000771F881F991F4A95D1F708958F929F9281
:1004F000AF92BF92CF92DF92EF92FF926B017C019D
:100500000E9451024B015C01C114D104E104F104C9
:10051000B9F00E945102681979098A099B09683E5D
:1005200073408105910580F321E0C21AD108E108EA
:10053000F10888EE880E83E0981EA11CB11CE4CF60
:10054000FF90EF90DF90CF90BF90AF909F908F90F3
:1005500008950895089590E080E00895FF920F9324
:100560001F93CF93DF93F82E062FC7E0D0E010E063
:1005700061E0802F0E94F2018F2D0E94C9010C2E94
:1005800001C0880F0A94EAF7182B60E0802F0E94C0
:10059000F201219768F7812FDF91CF911F910F9181
:1005A000FF900895EF92FF920F931F93CF93DF93E5
:1005B0008091B5020E94C901892B31F060E070E0A2
:1005C000CB010E947602F4CFDFB7F8946091B402B9
:1005D0008091B5020E94AE02082F6091B402809112
:1005E000B5020E94AE02C82F6091B4028091B5029C
:1005F0000E94AE02182FF12CE12C8091B6028E15CC
:100600001F0479F070F061E08091B4020E94F20161
:1006100060E08091B4020E94F2018FEFE81AF80ABC
:10062000ECCFDFBF6C2F70E090E080E0982F872F39
:10063000762F6627802B612B000F000B10E030E037
:1006400020E0302F222711270027602B712B822BCF
:10065000932BDF91CF911F910F91FF90EF90089511
:10066000CF93DF93EC0160E08E810E94F20161E0A4
:100670008E810E94F20160E08E810E94F2018BE87F
:1006800091E00197F1F7DF91CF910895CF92DF923A
:10069000EF92FF920F931F93CF93DF936C017C0136
:1006A00087E0E80EF11CD0E0C0E0062F10E0B801B2
:1006B0000C2E02C0759567950A94E2F76170F701F8
:1006C00081917F010E94F2012196C430D10579F712
:1006D000C601DF91CF911F910F91FF90EF90DF90B6
:1006E000CF900C943003CF92DF92EF92FF920F9352
:1006F0001F93CF93DF93EC01F62E642F8C810E9421
:10070000F2018D818F3F19F060E00E94F2010F2D00
:1007100010E08F8584FF25C06E0187E0C80ED11CD4
:10072000F12CE12CB8010E2C02C0759567950A9446
:10073000E2F76170F60181916F010E94F201FFEF13
:10074000EF1AFF0A88E0E816F10461F7CE01DF91A5
:10075000CF911F910F91FF90EF90DF90CF900C946D
:100760003003B80184E0759567958A95E1F7CE016D
:100770000E9446036F2DCE01DF91CF911F910F9103
:10078000FF90EF90DF90CF900C94460340E0682FED
:100790008FEB92E00C94730381E00E94C6038BE31D
:1007A0009FE10197F1F70895CF93DF93823029F409
:1007B0009091CE0298609093CE028093D2021092D4
:1007C000D30280E48093D40280E18093D50280E557
:1007D0008093D60261E08091C3020E942002809142
:1007E000C4028F3F19F061E00E94200261E0809115
:1007F000C5020E942002CFEBD2E09E012F5B324067
:100800008091CE0284FD0BC084E090E021962817F1
:10081000390744F461E08E810E942002EECF88E027
:1008200090E0F4CF8BE39DE00197F1F760E08091D9
:10083000C3020E94F20160E08091C5020E94F201B1
:100840008091C4028F3F19F060E00E94F201809114
:10085000CE0284FD34C063E08FEB92E00E94460339
:10086000CBE4D6E4CE010197F1F763E08FEB92E0A1
:100870000E9446032197F1F763E08FEB92E00E941C
:10088000460383E592E00197F1F762E08FEB92E097
:100890000E9446038091CE0280620E94C60384E0DB
:1008A0008093CF028CE00E94C6030E94CC0382E0BA
:1008B0008093D00286E0DF91CF910C94C6038062D2
:1008C0000E94C6038BE496E40197F1F78091CE0273
:1008D00080620E94C60383E592E00197F1F7809160
:1008E000CE0280620E94C603D5CF9091D2026917D2
:1008F00010F06FEF690FE62FF0E0E154FD4F94899F
:10090000890F80680C94C60341E00E94730381E064
:1009100090E00895FB0101900020E9F73197AF01C5
:10092000461B570BDC01ED91FC910280F381E02D19
:1009300009948F929F92AF92BF92EF92FF920F9382
:100940001F93CF93DF93CDB7DEB7A1970FB6F8947F
:10095000DEBF0FBECDBF7C01FA01CB0119A2223050
:1009600008F42AE08E010F5D1F4F822E912CB12CCE
:10097000A12CBF01A50194010E94D40AF901CA016A
:100980006A300CF5605DD8016E938D01232B242B0A
:10099000252B79F790E080E0109721F0BD01C70189
:1009A0000E948A04A1960FB6F894DEBF0FBECDBF99
:1009B000DF91CF911F910F91FF90EF90BF90AF907B
:1009C0009F908F900895695CDECFCF93DF93BC0139
:1009D00085E192E00E948A04EC016CE271E085E11D
:1009E00092E00E948A048C0F9D1FDF91CF910895A1
:1009F0002F923F924F925F926F927F928F929F922F
:100A0000AF92BF92CF92DF92EF92FF921F93CF935C
:100A1000DF93EC016A017B01722EAB019601CB01E1
:100A2000B6010E94CF0A6FE271E0811126C0460133
:100A30005701E894B7F82FEF3FEF4FE75FE7C501A5
:100A4000B4010E94CF0A81110CC02FEF3FEF4FE796
:100A50005FE7C501B4010E94050963E371E0181660
:100A600064F02FEF3FEF4FE75FE4C701B6010E944C
:100A70005D0A1816B4F467E371E0CE01DF91CF91FF
:100A80001F91FF90EF90DF90CF90BF90AF909F901D
:100A90008F907F906F905F904F903F902F900C942D
:100AA0008A042FEF3FEF4FE75FECC701B6010E94CA
:100AB000050987FDE0CF20E030E0A901C701B601BC
:100AC0000E940509312C212C87FF09C06DE2CE015F
:100AD0000E948C001C01F7FAF094F7F8F09410E0F3
:100AE00060E070E080E09FE3711641F020E030E0CC
:100AF00040E251E40E940A091F5FF6CFA701960168
:100B00000E9499082B013C010E947C094B015C0169
:100B10002AE0BC01A401CE010E9499047C01E20CF0
:100B2000F31C1123C1F1C501B4010E94AB099B0163
:100B3000AC01C301B2010E9498084B015C016EE256
:100B4000CE010E948C00E80EF91E115020F120E029
:100B500030E040E251E4C501B4010E94620A2B0179
:100B60003C010E947C094B01B12CA12C2AE0B5016B
:100B7000A401CE010E949904E80EF91EC501B4013A
:100B80000E94AB099B01AC01C301B2010E9498080D
:100B90004B015C01DACFC701DF91CF911F91FF902C
:100BA000EF90DF90CF90BF90AF909F908F907F900D
:100BB0006F905F904F903F902F9008950C94B70BDB
:100BC0001F920F920FB60F9211242F933F934F93C2
:100BD0005F936F937F938F939F93AF93BF93EF93A5
:100BE000FF9385E192E00E941101FF91EF91BF9187
:100BF000AF919F918F917F916F915F914F913F91B5
:100C00002F910F900FBE0F901F9018951F920F926B
:100C10000FB60F9211242F938F939F93EF93FF930F
:100C2000E0912502F09126028081E0912B02F09163
:100C30002C0282FD1BC0908180912E028F5F8F73EA
:100C400020912F02821741F0E0912E02F0E0EB5E3E
:100C5000FD4F958F80932E02FF91EF919F918F9181
:100C60002F910F900FBE0F901F9018958081F4CF99
:100C70001F920F920FB60F9211242F933F938F93D1
:100C80009F93AF93BF938091010290910202A09134
:100C90000302B09104023091000223E0230F2D37AC
:100CA00058F50196A11DB11D209300028093010209
:100CB00090930202A0930302B09304028091050274
:100CC00090910602A0910702B09108020196A11D21
:100CD000B11D8093050290930602A0930702B09382
:100CE0000802BF91AF919F918F913F912F910F90EB
:100CF0000FBE0F901F90189526E8230F0296A11D96
:100D0000B11DD2CFE5E1F2E01382128288EE93E0CA
:100D1000A0E0B0E084839583A683B7838AE091E066
:100D20009183808385EC90E09587848784EC90E0C4
:100D30009787868780EC90E0918B808B81EC90E0A8
:100D4000938B828B82EC90E0958B848B86EC90E089
:100D5000978B868B118E128E138E148EEFEBF2E032
:100D60001382128284E291E09183808387E08483FE
:100D70008FEF858386E0868385E0878384E08087A4
:100D800083E0818782E08287138614861586168623
:100D9000178681E00E94D403E2EBF2E08CE191E05F
:100DA00091838083158216821782108680E090E0FE
:100DB000A0E8BFE381879287A387B48708957894DA
:100DC00084B5826084BD84B5816084BD85B5826050
:100DD00085BD85B5816085BD80916E008160809301
:100DE0006E0010928100809181008260809381006A
:100DF000809181008160809381008091800081607A
:100E0000809380008091B10084608093B1008091D4
:100E1000B00081608093B00080917A0084608093FC
:100E20007A0080917A00826080937A0080917A00C3
:100E3000816080937A0080917A00806880937A0044
:100E40001092C100E0912502F091260282E0808399
:100E5000E0912102F09122021082E0912302F091B0
:100E600024028FEC808310922D02E0912902F091F0
:100E70002A0286E08083E0912702F0912802808197
:100E800080618083E0912702F09128028081886050
:100E90008083E0912702F09128028081806880831E
:100EA000E0912702F091280280818F7D80838FE07E
:100EB0008093B4028EE08093B50261E08FE00E94DF
:100EC000200260E08091B5020E94200281E08093C0
:100ED000B60282E00E94D40360E080E00E947504C4
:100EE0008BE391E00E94E50460E671E08FEB92E015
:100EF0000E948A0468EB7BE080E090E00E9476022A
:100F000060E080E00E9475048FE691E00E94E504B5
:100F100062E971E08FEB92E00E948A0468EB7BE06B
:100F200080E090E00E9476028CE00E94C9019093DC
:100F3000140280931302809113029091140201977E
:100F400071F48CE00E94C901909314028093130203
:100F500064E670E080E090E00E947602ECCF0E94B0
:100F6000D20224E630E040E050E00E94F60A2093EE
:100F70000F0230931002409311025093120262EA62
:100F800071E085E192E00E948A04C0900F02D09047
:100F90001002E0901102F09012022AE0B701A601BF
:100FA000F7FE0DC06DE285E192E00E948C004427BF
:100FB0005527BA014C195D096E097F092AE085E1C0
:100FC00092E00E9499046CE271E085E192E00E9457
:100FD0008A040E94CC0360E080E00E9475046AEB02
:100FE00071E08FEB92E00E948A0461E080E00E9451
:100FF000750466EC71E08FEB92E00E948A0461E078
:101000008BE00E947504C0900F02D0901002E09017
:101010001102F09012022AE0B701A601F7FE0DC0FE
:101020006DE28FEB92E00E948C0044275527BA01B5
:101030004C195D096E097F092AE08FEB92E00E944E
:1010400099048AE00E94C9017C0190930E0280936A
:101050000D0264E670E080E090E00E947602EF28E6
:1010600081F70E94D20220910F023091100240912C
:101070001102509112020E94F60ACA01B9010E949F
:10108000AD096093090270930A0280930B0290935A
:101090000C0261ED71E085E192E00E948A044091CA
:1010A000090250910A0260910B0270910C0222E039
:1010B00085E192E00E94F8048BED91E00E94E50446
:1010C00064EF71E080E090E00E9476020E94CC0321
:1010D00060E080E00E9475046EED71E08FEB92E0BD
:1010E0000E948A0461E080E00E9475044091090238
:1010F00050910A0260910B0270910C022AE08FEB72
:1011000092E00E94F80461E085E00E94750462EFBD
:1011100071E08FEB92E00E948A0461E087E00E9418
:1011200075046CED71E08FEB92E00E948A0489CF28
:101130005058BB27AA270E94B0080C94230A0E948B
:10114000150A38F00E941C0A20F039F49F3F19F468
:1011500026F40C94120A0EF4E095E7FB0C940C0AAA
:10116000E92F0E94340A58F3BA17620773078407FD
:10117000950720F079F4A6F50C94560A0EF4E09544
:101180000B2EBA2FA02D0B01B90190010C01CA0141
:10119000A0011124FF27591B99F0593F50F4503EEC
:1011A00068F11A16F040A22F232F342F4427585FDE
:1011B000F3CF469537952795A795F0405395C9F7F6
:1011C0007EF41F16BA0B620B730B840BBAF09150AE
:1011D000A1F0FF0FBB1F661F771F881FC2F70EC04D
:1011E000BA0F621F731F841F48F487957795679520
:1011F000B795F7959E3F08F0B0CF9395880F08F00C
:101200009927EE0F9795879508950E94E80908F4AD
:1012100081E008950E941E090C94230A0E941C0A72
:1012200058F00E94150A40F029F45F3F29F00C9411
:101230000C0A51110C94570A0C94120A0E94340A99
:1012400068F39923B1F3552391F3951B550BBB27F5
:10125000AA2762177307840738F09F5F5F4F220F3A
:10126000331F441FAA1FA9F335D00E2E3AF0E0E831
:1012700032D091505040E695001CCAF72BD0FE2F7B
:1012800029D0660F771F881FBB1F2617370748070F
:10129000AB07B0E809F0BB0B802DBF01FF279358C7
:1012A0005F4F3AF09E3F510578F00C940C0A0C9475
:1012B000570A5F3FE4F3983ED4F386957795679598
:1012C000B795F7959F5FC9F7880F911D96958795FC
:1012D00097F90895E1E0660F771F881FBB1F62171B
:1012E00073078407BA0720F0621B730B840BBA0BD9
:1012F000EE1F88F7E09508950E943C0A88F09F57FA
:1013000098F0B92F9927B751B0F0E1F0660F771F29
:10131000881F991F1AF0BA95C9F714C0B13091F01F
:101320000E94560AB1E008950C94560A672F782F50
:101330008827B85F39F0B93FCCF3869577956795E4
:10134000B395D9F73EF490958095709561957F4F50
:101350008F4F9F4F0895E89409C097FB3EF49095F6
:101360008095709561957F4F8F4F9F4F9923A9F07E
:10137000F92F96E9BB279395F6958795779567950D
:10138000B795F111F8CFFAF4BB0F11F460FF1BC051
:101390006F5F7F4F8F4F9F4F16C0882311F096E9E4
:1013A00011C0772321F09EE8872F762F05C0662392
:1013B00071F096E8862F70E060E02AF09A95660F4B
:1013C000771F881FDAF7880F9695879597F9089504
:1013D000990F0008550FAA0BE0E8FEEF1616170646
:1013E000E807F907C0F012161306E407F50798F0AE
:1013F000621B730B840B950B39F40A2661F0232BC7
:10140000242B252B21F408950A2609F4A140A69542
:101410008FEF811D811D089597F99F6780E870E027
:1014200060E008959FEF80EC089500240A9416165A
:10143000170618060906089500240A9412161306C2
:10144000140605060895092E0394000C11F4882350
:1014500052F0BB0F40F4BF2B11F460FF04C06F5F6C
:101460007F4F8F4F9F4F089557FD9058440F551F42
:1014700059F05F3F71F04795880F97FB991F61F016
:101480009F3F79F087950895121613061406551F8D
:10149000F2CF4695F1DF08C0161617061806991FF9
:1014A000F1CF86957105610508940895E894BB27EE
:1014B00066277727CB0197F908950E94E80908F479
:1014C0008FEF08950E94750A0C94230A0E94150A52
:1014D00038F00E941C0A20F0952311F00C940C0A9D
:1014E0000C94120A11240C94570A0E94340A70F3C7
:1014F000959FC1F3950F50E0551F629FF001729FB9
:10150000BB27F00DB11D639FAA27F00DB11DAA1FC7
:10151000649F6627B00DA11D661F829F2227B00D14
:10152000A11D621F739FB00DA11D621F839FA00D9F
:10153000611D221F749F3327A00D611D231F849FEF
:10154000600D211D822F762F6A2F11249F57504046
:101550009AF0F1F088234AF0EE0FFF1FBB1F661FC1
:10156000771F881F91505040A9F79E3F510580F08A
:101570000C940C0A0C94570A5F3FE4F3983ED4F3A2
:10158000869577956795B795F795E7959F5FC1F72E
:10159000FE2B880F911D9695879597F908950E94C7
:1015A000E809880B990B0895A1E21A2EAA1BBB1B10
:1015B000FD010DC0AA1FBB1FEE1FFF1FA217B3071F
:1015C000E407F50720F0A21BB30BE40BF50B661F35
:1015D000771F881F991F1A9469F7609570958095F9
:1015E00090959B01AC01BD01CF010895052E97FB9D
:1015F0001EF400940E940D0B57FD07D00E94D40AE0
:1016000007FC03D04EF40C940D0B5095409530958B
:1016100021953F4F4F4F5F4F08959095809570955E
:1016200061957F4F8F4F9F4F0895EE0FFF1F0590DD
:10163000F491E02D09940F931F93CF93DF938230A1
:10164000910510F482E090E0E091D902F091DA0285
:1016500030E020E0B0E0A0E0309799F421153105AA
:1016600009F44AC0281B390B24303105D8F58A818A
:101670009B816115710589F1FB0193838283FE01D2
:1016800011C0408151810281138148175907E0F050
:101690004817590799F4109761F012960C93129716
:1016A00013961C933296CF01DF91CF911F910F912A
:1016B00008950093D9021093DA02F4CF2115310571
:1016C00051F04217530738F0A901DB019A01BD011F
:1016D000DF01F801C1CFEF01F9CF9093DA028093D7
:1016E000D902CDCFFE01E20FF31F819391932250D7
:1016F000310939832883D7CF2091D7023091D8027E
:10170000232B41F420910201309103013093D80240
:101710002093D7022091000130910101211531055C
:1017200041F42DB73EB74091040150910501241BAF
:10173000350BE091D702F091D802E217F307A0F43D
:101740002E1B3F0B2817390778F0AC014E5F5F4F17
:101750002417350748F04E0F5F1F5093D80240936F
:10176000D702819391939FCFF0E0E0E09CCFCF939D
:10177000DF930097E9F0FC01329713821282A09167
:10178000D902B091DA02ED0130E020E01097A1F427
:1017900020813181820F931F2091D7023091D8028E
:1017A0002817390709F061C0F093D802E093D702F7
:1017B000DF91CF910895EA01CE17DF07E8F54A815E
:1017C0005B819E0141155105B1F7E901FB83EA8375
:1017D00049915991C40FD51FEC17FD0761F4808121
:1017E00091810296840F951FE901998388838281F4
:1017F00093819B838A83F0E0E0E012968D919C9127
:1018000013970097B9F52D913C911197CD01029650
:10181000820F931F2091D7023091D80228173907E1
:1018200039F6309751F51092DA021092D902B0933E
:10183000D802A093D702BCCFD383C2834081518109
:10184000840F951FC817D90761F44E5F5F4F8881D9
:101850009981480F591F518340838A819B819383CB
:1018600082832115310509F0B0CFF093DA02E093BD
:10187000D9029ECFFD01DC01C0CF13821282D7CFE7
:04188000F894FFCF0A
:101884000000DB0280000000000033019300C00070
:101894008001F100CF00E30000000000A902DE0592
:1018A4000000000084049300AB02AA020D0A006E3B
:1018B400616E00696E66006F76660072656D6F76A4
:1018C4006520616E79207765696768742066726F38
:1018D4006D20746865206C6F61642063656C6C00B6
:1018E40052656D6F766520776569676874730070FB
:1018F40075742061203130306720776569676874BA
:10190400206F6E20746865206C6F61642063656C61
:101914006C007075742031303067207765696768B2
:10192400740063616C6962726174696F6E206661D0
:1019340063746F722069733A200063616C69627228
:101944006174696F6E00666163746F7220697320DD
:1019540000576569676874203D20002067006D6545
:10196400617375726564207765696768742069734B
:101974003A002020202020202020202020200000A9
:00000001FF
